{
  "transactions": [
    {
      "hash": "0x467667c8a477a00a6674a132899d9fdc5cd637a03b90a586e3043966b5a92dd4",
      "transactionType": "CALL",
      "contractName": null,
      "contractAddress": "0x758d92d1ade72bce33c5677a23208280c259f00a",
      "function": "approve(address,uint256)",
      "arguments": [
        "0x8Ff06724e15B6ACcAeD6164DE2ab9FA15c4980ad",
        "2000000000000000000"
      ],
      "transaction": {
        "from": "0xd6633c1382896079d3576ec43519d844a8c80b56",
        "to": "0x758d92d1ade72bce33c5677a23208280c259f00a",
        "gas": "0x107cf",
        "value": "0x0",
        "input": "0x095ea7b30000000000000000000000008ff06724e15b6accaed6164de2ab9fa15c4980ad0000000000000000000000000000000000000000000000001bc16d674ec80000",
        "nonce": "0x0",
        "chainId": "0xaa36a7",
        "accessList": null,
        "type": null
      },
      "additionalContracts": [],
      "isFixedGasLimit": false
    },
    {
      "hash": "0xc9fe49a310a63ec7f826a4ca35e3a1c6c492bc62a4def4a983f503f9f783b933",
      "transactionType": "CALL",
      "contractName": null,
      "contractAddress": "0x8ff06724e15b6accaed6164de2ab9fa15c4980ad",
      "function": "deposit(address,uint256,address)",
      "arguments": [
        "0x758d92D1ade72Bce33c5677a23208280c259F00A",
        "2000000000000000000",
        "0xD6633c1382896079D3576eC43519d844a8C80B56"
      ],
      "transaction": {
        "from": "0xd6633c1382896079d3576ec43519d844a8c80b56",
        "to": "0x8ff06724e15b6accaed6164de2ab9fa15c4980ad",
        "gas": "0x1e549",
        "value": "0x0",
        "input": "0xf45346dc000000000000000000000000758d92d1ade72bce33c5677a23208280c259f00a0000000000000000000000000000000000000000000000001bc16d674ec80000000000000000000000000000d6633c1382896079d3576ec43519d844a8c80b56",
        "nonce": "0x1",
        "chainId": "0xaa36a7",
        "accessList": null,
        "type": null
      },
      "additionalContracts": [],
      "isFixedGasLimit": false
    }
  ],
  "receipts": [
    {
      "status": "0x1",
      "cumulativeGasUsed": "0xb7624a",
      "logs": [
        {
          "address": "0x758d92d1ade72bce33c5677a23208280c259f00a",
          "topics": [
            "0x8c5be1e5ebec7d5bd14f71427d1e84f3dd0314c0f7b2291e5b200ac8c7c3b925",
            "0x000000000000000000000000d6633c1382896079d3576ec43519d844a8c80b56",
            "0x0000000000000000000000008ff06724e15b6accaed6164de2ab9fa15c4980ad"
          ],
          "data": "0x0000000000000000000000000000000000000000000000001bc16d674ec80000",
          "blockHash": "0x4f6bd246292d40f5f52d56e0745dae1fe0d9b1e7c2437ecac3303c9d8e29b58d",
          "blockNumber": "0x56f847",
          "transactionHash": "0x467667c8a477a00a6674a132899d9fdc5cd637a03b90a586e3043966b5a92dd4",
          "transactionIndex": "0x2d",
          "logIndex": "0x33",
          "removed": false
        }
      ],
      "logsBloom": "0x00000000000002000000000000000000000000000000400000000000000000000000000000000000000000000000000000000000000000040000000000200000000000000000000100000000000000000000000000000000000000000000000000000000000000000000000000000000000000000000000800000000020000004000000000000004000000000000000000000000000100000000000000000000020000000000000000000000000000000000000000000000000000000000000000000000000000000000000000000000000000000000000000000000000000000010000000000000000000000000000000000000000000000000000000000000",
      "type": "0x2",
      "transactionHash": "0x467667c8a477a00a6674a132899d9fdc5cd637a03b90a586e3043966b5a92dd4",
      "transactionIndex": "0x2d",
      "blockHash": "0x4f6bd246292d40f5f52d56e0745dae1fe0d9b1e7c2437ecac3303c9d8e29b58d",
      "blockNumber": "0x56f847",
      "gasUsed": "0xb462",
      "effectiveGasPrice": "0x3b98bb36",
      "from": "0xd6633c1382896079d3576ec43519d844a8c80b56",
      "to": "0x758d92d1ade72bce33c5677a23208280c259f00a",
      "contractAddress": null
    },
    {
      "status": "0x1",
      "cumulativeGasUsed": "0xb8ae1c",
      "logs": [
        {
          "address": "0x758d92d1ade72bce33c5677a23208280c259f00a",
          "topics": [
            "0xddf252ad1be2c89b69c2b068fc378daa952ba7f163c4a11628f55a4df523b3ef",
            "0x000000000000000000000000d6633c1382896079d3576ec43519d844a8c80b56",
            "0x0000000000000000000000008ff06724e15b6accaed6164de2ab9fa15c4980ad"
          ],
          "data": "0x0000000000000000000000000000000000000000000000001bc16d674ec80000",
          "blockHash": "0x4f6bd246292d40f5f52d56e0745dae1fe0d9b1e7c2437ecac3303c9d8e29b58d",
          "blockNumber": "0x56f847",
          "transactionHash": "0xc9fe49a310a63ec7f826a4ca35e3a1c6c492bc62a4def4a983f503f9f783b933",
          "transactionIndex": "0x2e",
          "logIndex": "0x34",
          "removed": false
        },
        {
          "address": "0x8ff06724e15b6accaed6164de2ab9fa15c4980ad",
          "topics": [
            "0x5548c837ab068cf56a2c2479df0882a4922fd203edb7517321831d95078c5f62",
            "0x000000000000000000000000d6633c1382896079d3576ec43519d844a8c80b56",
            "0x000000000000000000000000758d92d1ade72bce33c5677a23208280c259f00a"
          ],
          "data": "0x0000000000000000000000000000000000000000000000001bc16d674ec80000",
          "blockHash": "0x4f6bd246292d40f5f52d56e0745dae1fe0d9b1e7c2437ecac3303c9d8e29b58d",
          "blockNumber": "0x56f847",
          "transactionHash": "0xc9fe49a310a63ec7f826a4ca35e3a1c6c492bc62a4def4a983f503f9f783b933",
          "transactionIndex": "0x2e",
          "logIndex": "0x35",
          "removed": false
        }
      ],
      "logsBloom": "0x00000000000002000000000000000000000000000000400000000000000000000000000000000000000000000000000000000000000002040000000040000000000000000008000100000008000000000000000000000000000000000000000000000000000000000000000000000000000000800000000800000010020000004010000000000004000000000000000000000000000100000000000000000010000000000000000000000040000000000000000000000000000000000000000400000002100000000000000000000000000000000000000000000000000000000000000000000000000000000000000000000000000000000000000000000000",
      "type": "0x2",
      "transactionHash": "0xc9fe49a310a63ec7f826a4ca35e3a1c6c492bc62a4def4a983f503f9f783b933",
      "transactionIndex": "0x2e",
      "blockHash": "0x4f6bd246292d40f5f52d56e0745dae1fe0d9b1e7c2437ecac3303c9d8e29b58d",
      "blockNumber": "0x56f847",
      "gasUsed": "0x14bd2",
      "effectiveGasPrice": "0x3b98bb36",
      "from": "0xd6633c1382896079d3576ec43519d844a8c80b56",
      "to": "0x8ff06724e15b6accaed6164de2ab9fa15c4980ad",
      "contractAddress": null
    }
  ],
  "libraries": [],
  "pending": [],
  "returns": {},
  "timestamp": 1713138207,
  "chain": 11155111,
  "commit": "ad209ae"
}