{
  "transactions": [
    {
      "hash": "0x782c640992ee3571f082b034a9cc9d22f92b3de88ba49f22584607ab1ac57314",
      "transactionType": "CALL",
      "contractName": null,
      "contractAddress": "0x758d92d1ade72bce33c5677a23208280c259f00a",
      "function": "approve(address,uint256)",
      "arguments": [
        "0x8Ff06724e15B6ACcAeD6164DE2ab9FA15c4980ad",
        "5000000000000000000"
      ],
      "transaction": {
        "from": "0xeed5b3026060218dc270ae672be6468053e65e39",
        "to": "0x758d92d1ade72bce33c5677a23208280c259f00a",
        "gas": "0x107cf",
        "value": "0x0",
        "input": "0x095ea7b30000000000000000000000008ff06724e15b6accaed6164de2ab9fa15c4980ad0000000000000000000000000000000000000000000000004563918244f40000",
        "nonce": "0x0",
        "chainId": "0xaa36a7",
        "accessList": null,
        "type": null
      },
      "additionalContracts": [],
      "isFixedGasLimit": false
    },
    {
      "hash": "0x61ac2173621e2a7cd930fe1efd1a3cf009fb12e326c4ae9384ccbdbee0f1e98a",
      "transactionType": "CALL",
      "contractName": null,
      "contractAddress": "0x8ff06724e15b6accaed6164de2ab9fa15c4980ad",
      "function": "deposit(address,uint256,address)",
      "arguments": [
        "0x758d92D1ade72Bce33c5677a23208280c259F00A",
        "5000000000000000000",
        "0xeeD5B3026060218Dc270AE672be6468053e65E39"
      ],
      "transaction": {
        "from": "0xeed5b3026060218dc270ae672be6468053e65e39",
        "to": "0x8ff06724e15b6accaed6164de2ab9fa15c4980ad",
        "gas": "0x16e0f",
        "value": "0x0",
        "input": "0xf45346dc000000000000000000000000758d92d1ade72bce33c5677a23208280c259f00a0000000000000000000000000000000000000000000000004563918244f40000000000000000000000000000eed5b3026060218dc270ae672be6468053e65e39",
        "nonce": "0x1",
        "chainId": "0xaa36a7",
        "accessList": null,
        "type": null
      },
      "additionalContracts": [],
      "isFixedGasLimit": false
    }
  ],
  "receipts": [
    {
      "status": "0x1",
      "cumulativeGasUsed": "0x12b2858",
      "logs": [
        {
          "address": "0x758d92d1ade72bce33c5677a23208280c259f00a",
          "topics": [
            "0x8c5be1e5ebec7d5bd14f71427d1e84f3dd0314c0f7b2291e5b200ac8c7c3b925",
            "0x000000000000000000000000eed5b3026060218dc270ae672be6468053e65e39",
            "0x0000000000000000000000008ff06724e15b6accaed6164de2ab9fa15c4980ad"
          ],
          "data": "0x0000000000000000000000000000000000000000000000004563918244f40000",
          "blockHash": "0x39cba2e2c78d948186c180d898d05a7414fa1a86c6629f9ac421807d5eaa0d94",
          "blockNumber": "0x56f84c",
          "transactionHash": "0x782c640992ee3571f082b034a9cc9d22f92b3de88ba49f22584607ab1ac57314",
          "transactionIndex": "0x5d",
          "logIndex": "0x58",
          "removed": false
        }
      ],
      "logsBloom": "0x00000000000002000000000000000000000000000000400000000000000000000000000000000000000000000000000000000000000000000000000080200000000000000000000100000000000000000000000000000000000000000000000000000000000000004000000000000000000000000000000800000000020000000000400000000004000000000000000000000000000000000000000000000000020000000000000000000000000000000000000000000000000000000000000000000000000000000000000000000000000000000000000000000000000000000010000000000000000000000000000000000000000000000000000000000000",
      "type": "0x2",
      "transactionHash": "0x782c640992ee3571f082b034a9cc9d22f92b3de88ba49f22584607ab1ac57314",
      "transactionIndex": "0x5d",
      "blockHash": "0x39cba2e2c78d948186c180d898d05a7414fa1a86c6629f9ac421807d5eaa0d94",
      "blockNumber": "0x56f84c",
      "gasUsed": "0xb462",
      "effectiveGasPrice": "0x5fb9de1",
      "from": "0xeed5b3026060218dc270ae672be6468053e65e39",
      "to": "0x758d92d1ade72bce33c5677a23208280c259f00a",
      "contractAddress": null
    },
    {
      "status": "0x1",
      "cumulativeGasUsed": "0x12c315e",
      "logs": [
        {
          "address": "0x758d92d1ade72bce33c5677a23208280c259f00a",
          "topics": [
            "0xddf252ad1be2c89b69c2b068fc378daa952ba7f163c4a11628f55a4df523b3ef",
            "0x000000000000000000000000eed5b3026060218dc270ae672be6468053e65e39",
            "0x0000000000000000000000008ff06724e15b6accaed6164de2ab9fa15c4980ad"
          ],
          "data": "0x0000000000000000000000000000000000000000000000004563918244f40000",
          "blockHash": "0x39cba2e2c78d948186c180d898d05a7414fa1a86c6629f9ac421807d5eaa0d94",
          "blockNumber": "0x56f84c",
          "transactionHash": "0x61ac2173621e2a7cd930fe1efd1a3cf009fb12e326c4ae9384ccbdbee0f1e98a",
          "transactionIndex": "0x5e",
          "logIndex": "0x59",
          "removed": false
        },
        {
          "address": "0x8ff06724e15b6accaed6164de2ab9fa15c4980ad",
          "topics": [
            "0x5548c837ab068cf56a2c2479df0882a4922fd203edb7517321831d95078c5f62",
            "0x000000000000000000000000eed5b3026060218dc270ae672be6468053e65e39",
            "0x000000000000000000000000758d92d1ade72bce33c5677a23208280c259f00a"
          ],
          "data": "0x0000000000000000000000000000000000000000000000004563918244f40000",
          "blockHash": "0x39cba2e2c78d948186c180d898d05a7414fa1a86c6629f9ac421807d5eaa0d94",
          "blockNumber": "0x56f84c",
          "transactionHash": "0x61ac2173621e2a7cd930fe1efd1a3cf009fb12e326c4ae9384ccbdbee0f1e98a",
          "transactionIndex": "0x5e",
          "logIndex": "0x5a",
          "removed": false
        }
      ],
      "logsBloom": "0x000000000000020000000000000000000000000000004000000000000000000000000000000000000000000000000000000000000000020000000000c0000000000000000008000100000008000000000000000000000000000000000000000000000000000000004000000000000000000000800000000800000010020000000010400000000004000000000000000000000000000000000000000000000010000000000000000000000040000000000000000000000000000000000000000400000002100000000000000000000000000000000000000000000000000000000000000000000000000000000000000000000000000000000000000000000000",
      "type": "0x2",
      "transactionHash": "0x61ac2173621e2a7cd930fe1efd1a3cf009fb12e326c4ae9384ccbdbee0f1e98a",
      "transactionIndex": "0x5e",
      "blockHash": "0x39cba2e2c78d948186c180d898d05a7414fa1a86c6629f9ac421807d5eaa0d94",
      "blockNumber": "0x56f84c",
      "gasUsed": "0x10906",
      "effectiveGasPrice": "0x5fb9de1",
      "from": "0xeed5b3026060218dc270ae672be6468053e65e39",
      "to": "0x8ff06724e15b6accaed6164de2ab9fa15c4980ad",
      "contractAddress": null
    }
  ],
  "libraries": [],
  "pending": [],
  "returns": {},
  "timestamp": 1713138268,
  "chain": 11155111,
  "commit": "ad209ae"
}