{
  "transactions": [
    {
      "hash": "0xdb9fe4c588bea296ac3b8911a5d0307570cc5bc3285c52c68788b6e27f250557",
      "transactionType": "CREATE",
      "contractName": null,
      "contractAddress": "0x758d92d1ade72bce33c5677a23208280c259f00a",
      "function": null,
      "arguments": null,
      "transaction": {
        "from": "0x3d49dea4035432968a531e663cda96255867bfc1",
        "to": null,
        "gas": "0xf3158",
        "value": "0x0",
        "input": "0x60e06040523480156200001157600080fd5b5060405162001028380380620010288339810160408190526200003491620001db565b8282826000620000458482620002ef565b506001620000548382620002ef565b5060ff81166080524660a0526200006a6200007a565b60c0525062000439945050505050565b60007f8b73c3c69bb8fe3d512ecc4cf759cc79239f7b179b0ffacaa9a75d522b39400f6000604051620000ae9190620003bb565b6040805191829003822060208301939093528101919091527fc89efdaa54c0f20c7adf612882df0950f5a951637e0307cdcb4c672f298b8bc660608201524660808201523060a082015260c00160405160208183030381529060405280519060200120905090565b634e487b7160e01b600052604160045260246000fd5b600082601f8301126200013e57600080fd5b81516001600160401b03808211156200015b576200015b62000116565b604051601f8301601f19908116603f0116810190828211818310171562000186576200018662000116565b81604052838152602092508683858801011115620001a357600080fd5b600091505b83821015620001c75785820183015181830184015290820190620001a8565b600093810190920192909252949350505050565b600080600060608486031215620001f157600080fd5b83516001600160401b03808211156200020957600080fd5b62000217878388016200012c565b945060208601519150808211156200022e57600080fd5b506200023d868287016200012c565b925050604084015160ff811681146200025557600080fd5b809150509250925092565b600181811c908216806200027557607f821691505b6020821081036200029657634e487b7160e01b600052602260045260246000fd5b50919050565b601f821115620002ea57600081815260208120601f850160051c81016020861015620002c55750805b601f850160051c820191505b81811015620002e657828155600101620002d1565b5050505b505050565b81516001600160401b038111156200030b576200030b62000116565b62000323816200031c845462000260565b846200029c565b602080601f8311600181146200035b5760008415620003425750858301515b600019600386901b1c1916600185901b178555620002e6565b600085815260208120601f198616915b828110156200038c578886015182559484019460019091019084016200036b565b5085821015620003ab5787850151600019600388901b60f8161c191681555b5050505050600190811b01905550565b6000808354620003cb8162000260565b60018281168015620003e65760018114620003fc576200042d565b60ff19841687528215158302870194506200042d565b8760005260208060002060005b85811015620004245781548a82015290840190820162000409565b50505082870194505b50929695505050505050565b60805160a05160c051610bbf6200046960003960006104700152600061043b0152600061015f0152610bbf6000f3fe608060405234801561001057600080fd5b50600436106100ea5760003560e01c806370a082311161008c5780639dc29fac116100665780639dc29fac146101f8578063a9059cbb1461020b578063d505accf1461021e578063dd62ed3e1461023157600080fd5b806370a08231146101b05780637ecebe00146101d057806395d89b41146101f057600080fd5b806323b872dd116100c857806323b872dd14610147578063313ce5671461015a5780633644e5151461019357806340c10f191461019b57600080fd5b806306fdde03146100ef578063095ea7b31461010d57806318160ddd14610130575b600080fd5b6100f761025c565b60405161010491906108bc565b60405180910390f35b61012061011b366004610926565b6102ea565b6040519015158152602001610104565b61013960025481565b604051908152602001610104565b610120610155366004610950565b610357565b6101817f000000000000000000000000000000000000000000000000000000000000000081565b60405160ff9091168152602001610104565b610139610437565b6101ae6101a9366004610926565b610492565b005b6101396101be36600461098c565b60036020526000908152604090205481565b6101396101de36600461098c565b60056020526000908152604090205481565b6100f76104a0565b6101ae610206366004610926565b6104ad565b610120610219366004610926565b6104b7565b6101ae61022c3660046109ae565b61051d565b61013961023f366004610a21565b600460209081526000928352604080842090915290825290205481565b6000805461026990610a54565b80601f016020809104026020016040519081016040528092919081815260200182805461029590610a54565b80156102e25780601f106102b7576101008083540402835291602001916102e2565b820191906000526020600020905b8154815290600101906020018083116102c557829003601f168201915b505050505081565b3360008181526004602090815260408083206001600160a01b038716808552925280832085905551919290917f8c5be1e5ebec7d5bd14f71427d1e84f3dd0314c0f7b2291e5b200ac8c7c3b925906103459086815260200190565b60405180910390a35060015b92915050565b6001600160a01b038316600090815260046020908152604080832033845290915281205460001981146103b35761038e8382610aa4565b6001600160a01b03861660009081526004602090815260408083203384529091529020555b6001600160a01b038516600090815260036020526040812080548592906103db908490610aa4565b90915550506001600160a01b0380851660008181526003602052604090819020805487019055519091871690600080516020610b6a833981519152906104249087815260200190565b60405180910390a3506001949350505050565b60007f0000000000000000000000000000000000000000000000000000000000000000461461046d57610468610766565b905090565b507f000000000000000000000000000000000000000000000000000000000000000090565b61049c8282610800565b5050565b6001805461026990610a54565b61049c828261085a565b336000908152600360205260408120805483919083906104d8908490610aa4565b90915550506001600160a01b03831660008181526003602052604090819020805485019055513390600080516020610b6a833981519152906103459086815260200190565b428410156105725760405162461bcd60e51b815260206004820152601760248201527f5045524d49545f444541444c494e455f4558504952454400000000000000000060448201526064015b60405180910390fd5b6000600161057e610437565b6001600160a01b038a811660008181526005602090815260409182902080546001810190915582517f6e71edae12b1b97f4d1f60370fef10105fa2faae0126114a169c64845d6126c98184015280840194909452938d166060840152608083018c905260a083019390935260c08083018b90528151808403909101815260e08301909152805192019190912061190160f01b6101008301526101028201929092526101228101919091526101420160408051601f198184030181528282528051602091820120600084529083018083525260ff871690820152606081018590526080810184905260a0016020604051602081039080840390855afa15801561068a573d6000803e3d6000fd5b5050604051601f1901519150506001600160a01b038116158015906106c05750876001600160a01b0316816001600160a01b0316145b6106fd5760405162461bcd60e51b815260206004820152600e60248201526d24a72b20a624a22fa9a4a3a722a960911b6044820152606401610569565b6001600160a01b0390811660009081526004602090815260408083208a8516808552908352928190208990555188815291928a16917f8c5be1e5ebec7d5bd14f71427d1e84f3dd0314c0f7b2291e5b200ac8c7c3b925910160405180910390a350505050505050565b60007f8b73c3c69bb8fe3d512ecc4cf759cc79239f7b179b0ffacaa9a75d522b39400f60006040516107989190610ab7565b6040805191829003822060208301939093528101919091527fc89efdaa54c0f20c7adf612882df0950f5a951637e0307cdcb4c672f298b8bc660608201524660808201523060a082015260c00160405160208183030381529060405280519060200120905090565b80600260008282546108129190610b56565b90915550506001600160a01b038216600081815260036020908152604080832080548601905551848152600080516020610b6a83398151915291015b60405180910390a35050565b6001600160a01b03821660009081526003602052604081208054839290610882908490610aa4565b90915550506002805482900390556040518181526000906001600160a01b03841690600080516020610b6a8339815191529060200161084e565b600060208083528351808285015260005b818110156108e9578581018301518582016040015282016108cd565b506000604082860101526040601f19601f8301168501019250505092915050565b80356001600160a01b038116811461092157600080fd5b919050565b6000806040838503121561093957600080fd5b6109428361090a565b946020939093013593505050565b60008060006060848603121561096557600080fd5b61096e8461090a565b925061097c6020850161090a565b9150604084013590509250925092565b60006020828403121561099e57600080fd5b6109a78261090a565b9392505050565b600080600080600080600060e0888a0312156109c957600080fd5b6109d28861090a565b96506109e06020890161090a565b95506040880135945060608801359350608088013560ff81168114610a0457600080fd5b9699959850939692959460a0840135945060c09093013592915050565b60008060408385031215610a3457600080fd5b610a3d8361090a565b9150610a4b6020840161090a565b90509250929050565b600181811c90821680610a6857607f821691505b602082108103610a8857634e487b7160e01b600052602260045260246000fd5b50919050565b634e487b7160e01b600052601160045260246000fd5b8181038181111561035157610351610a8e565b600080835481600182811c915080831680610ad357607f831692505b60208084108203610af257634e487b7160e01b86526022600452602486fd5b818015610b065760018114610b1b57610b48565b60ff1986168952841515850289019650610b48565b60008a81526020902060005b86811015610b405781548b820152908501908301610b27565b505084890196505b509498975050505050505050565b8082018082111561035157610351610a8e56feddf252ad1be2c89b69c2b068fc378daa952ba7f163c4a11628f55a4df523b3efa2646970667358221220db1b5e5805ee5921a488560749476fb1586eaf5afb55d597a00a1d8d744c2a2964736f6c63430008150033000000000000000000000000000000000000000000000000000000000000006000000000000000000000000000000000000000000000000000000000000000a00000000000000000000000000000000000000000000000000000000000000012000000000000000000000000000000000000000000000000000000000000000a4d6f636b546f6b656e410000000000000000000000000000000000000000000000000000000000000000000000000000000000000000000000000000000000044d544b4100000000000000000000000000000000000000000000000000000000",
        "nonce": "0xc",
        "chainId": "0xaa36a7",
        "accessList": null,
        "type": null
      },
      "additionalContracts": [],
      "isFixedGasLimit": false
    },
    {
      "hash": "0x67564676ccb8255a68925f47299c124d78bd86be126be91f0b297fe0c3193b9d",
      "transactionType": "CALL",
      "contractName": null,
      "contractAddress": "0x758d92d1ade72bce33c5677a23208280c259f00a",
      "function": "mint(address,uint256)",
      "arguments": [
        "0xD6633c1382896079D3576eC43519d844a8C80B56",
        "5000000000000000000"
      ],
      "transaction": {
        "from": "0x3d49dea4035432968a531e663cda96255867bfc1",
        "to": "0x758d92d1ade72bce33c5677a23208280c259f00a",
        "gas": "0x170a9",
        "value": "0x0",
        "input": "0x40c10f19000000000000000000000000d6633c1382896079d3576ec43519d844a8c80b560000000000000000000000000000000000000000000000004563918244f40000",
        "nonce": "0xd",
        "chainId": "0xaa36a7",
        "accessList": null,
        "type": null
      },
      "additionalContracts": [],
      "isFixedGasLimit": false
    },
    {
      "hash": "0xfaac15d677da2a330709f6026edece027c7f505435f6158a910fffd38303a2a7",
      "transactionType": "CALL",
      "contractName": null,
      "contractAddress": "0x758d92d1ade72bce33c5677a23208280c259f00a",
      "function": "mint(address,uint256)",
      "arguments": [
        "0xeeD5B3026060218Dc270AE672be6468053e65E39",
        "10000000000000000000"
      ],
      "transaction": {
        "from": "0x3d49dea4035432968a531e663cda96255867bfc1",
        "to": "0x758d92d1ade72bce33c5677a23208280c259f00a",
        "gas": "0x11465",
        "value": "0x0",
        "input": "0x40c10f19000000000000000000000000eed5b3026060218dc270ae672be6468053e65e390000000000000000000000000000000000000000000000008ac7230489e80000",
        "nonce": "0xe",
        "chainId": "0xaa36a7",
        "accessList": null,
        "type": null
      },
      "additionalContracts": [],
      "isFixedGasLimit": false
    },
    {
      "hash": "0x29afe6e18e91c9c474134b2f96d9e017eec596433a6dc70877910ec937afc308",
      "transactionType": "CALL",
      "contractName": null,
      "contractAddress": "0x758d92d1ade72bce33c5677a23208280c259f00a",
      "function": "mint(address,uint256)",
      "arguments": [
        "0xb30C79546800EF35Ea1fAae56A5faA5C03332D9F",
        "15000000000000000000"
      ],
      "transaction": {
        "from": "0x3d49dea4035432968a531e663cda96255867bfc1",
        "to": "0x758d92d1ade72bce33c5677a23208280c259f00a",
        "gas": "0x11456",
        "value": "0x0",
        "input": "0x40c10f19000000000000000000000000b30c79546800ef35ea1faae56a5faa5c03332d9f000000000000000000000000000000000000000000000000d02ab486cedc0000",
        "nonce": "0xf",
        "chainId": "0xaa36a7",
        "accessList": null,
        "type": null
      },
      "additionalContracts": [],
      "isFixedGasLimit": false
    }
  ],
  "receipts": [
    {
      "status": "0x1",
      "cumulativeGasUsed": "0x7aa075",
      "logs": [],
      "logsBloom": "0x00000000000000000000000000000000000000000000000000000000000000000000000000000000000000000000000000000000000000000000000000000000000000000000000000000000000000000000000000000000000000000000000000000000000000000000000000000000000000000000000000000000000000000000000000000000000000000000000000000000000000000000000000000000000000000000000000000000000000000000000000000000000000000000000000000000000000000000000000000000000000000000000000000000000000000000000000000000000000000000000000000000000000000000000000000000",
      "type": "0x2",
      "transactionHash": "0xdb9fe4c588bea296ac3b8911a5d0307570cc5bc3285c52c68788b6e27f250557",
      "transactionIndex": "0x2b",
      "blockHash": "0xdfc8e9b88b9da06cd10ca81e5098a3663543ab416db9c1a0f2f7b9cfcaf3d791",
      "blockNumber": "0x56f82c",
      "gasUsed": "0xbb0e0",
      "effectiveGasPrice": "0x1dd314ad",
      "from": "0x3d49dea4035432968a531e663cda96255867bfc1",
      "to": null,
      "contractAddress": "0x758d92d1ade72bce33c5677a23208280c259f00a"
    },
    {
      "status": "0x1",
      "cumulativeGasUsed": "0x7bab5d",
      "logs": [
        {
          "address": "0x758d92d1ade72bce33c5677a23208280c259f00a",
          "topics": [
            "0xddf252ad1be2c89b69c2b068fc378daa952ba7f163c4a11628f55a4df523b3ef",
            "0x0000000000000000000000000000000000000000000000000000000000000000",
            "0x000000000000000000000000d6633c1382896079d3576ec43519d844a8c80b56"
          ],
          "data": "0x0000000000000000000000000000000000000000000000004563918244f40000",
          "blockHash": "0xdfc8e9b88b9da06cd10ca81e5098a3663543ab416db9c1a0f2f7b9cfcaf3d791",
          "blockNumber": "0x56f82c",
          "transactionHash": "0x67564676ccb8255a68925f47299c124d78bd86be126be91f0b297fe0c3193b9d",
          "transactionIndex": "0x2c",
          "logIndex": "0x3e",
          "removed": false
        }
      ],
      "logsBloom": "0x00000000000000000000000000000000000000000000400000000000000000000000000000000000000000000000000000000000000000040000000000000000000000000000000000000008000000000000000000000000000000000000000000000000020000000000000000000800000000000000000800000010000000004000000000000004000000000000000000000000000100000000000000000000000000000000000000000000000000000000000000000000000000000000000000000002000000000000000000000000000000000000000000000000000020000000000000000000000000000000000000000000000000000000000000000000",
      "type": "0x2",
      "transactionHash": "0x67564676ccb8255a68925f47299c124d78bd86be126be91f0b297fe0c3193b9d",
      "transactionIndex": "0x2c",
      "blockHash": "0xdfc8e9b88b9da06cd10ca81e5098a3663543ab416db9c1a0f2f7b9cfcaf3d791",
      "blockNumber": "0x56f82c",
      "gasUsed": "0x10ae8",
      "effectiveGasPrice": "0x1dd314ad",
      "from": "0x3d49dea4035432968a531e663cda96255867bfc1",
      "to": "0x758d92d1ade72bce33c5677a23208280c259f00a",
      "contractAddress": null
    },
    {
      "status": "0x1",
      "cumulativeGasUsed": "0x7c7379",
      "logs": [
        {
          "address": "0x758d92d1ade72bce33c5677a23208280c259f00a",
          "topics": [
            "0xddf252ad1be2c89b69c2b068fc378daa952ba7f163c4a11628f55a4df523b3ef",
            "0x0000000000000000000000000000000000000000000000000000000000000000",
            "0x000000000000000000000000eed5b3026060218dc270ae672be6468053e65e39"
          ],
          "data": "0x0000000000000000000000000000000000000000000000008ac7230489e80000",
          "blockHash": "0xdfc8e9b88b9da06cd10ca81e5098a3663543ab416db9c1a0f2f7b9cfcaf3d791",
          "blockNumber": "0x56f82c",
          "transactionHash": "0xfaac15d677da2a330709f6026edece027c7f505435f6158a910fffd38303a2a7",
          "transactionIndex": "0x2d",
          "logIndex": "0x3f",
          "removed": false
        }
      ],
      "logsBloom": "0x00000000000000000000000000000000000000000000400000000000000000000000000000000000000000000000000000000000000000000000000080000000000000000000000000000008000000000000000000000000000000000000000000000000020000004000000000000800000000000000000800000010000000000000400000000004000000000000000000000000000000000000000000000000000000000000000000000000000000000000000000000000000000000000000000000002000000000000000000000000000000000000000000000000000020000000000000000000000000000000000000000000000000000000000000000000",
      "type": "0x2",
      "transactionHash": "0xfaac15d677da2a330709f6026edece027c7f505435f6158a910fffd38303a2a7",
      "transactionIndex": "0x2d",
      "blockHash": "0xdfc8e9b88b9da06cd10ca81e5098a3663543ab416db9c1a0f2f7b9cfcaf3d791",
      "blockNumber": "0x56f82c",
      "gasUsed": "0xc81c",
      "effectiveGasPrice": "0x1dd314ad",
      "from": "0x3d49dea4035432968a531e663cda96255867bfc1",
      "to": "0x758d92d1ade72bce33c5677a23208280c259f00a",
      "contractAddress": null
    },
    {
      "status": "0x1",
      "cumulativeGasUsed": "0x7d3b89",
      "logs": [
        {
          "address": "0x758d92d1ade72bce33c5677a23208280c259f00a",
          "topics": [
            "0xddf252ad1be2c89b69c2b068fc378daa952ba7f163c4a11628f55a4df523b3ef",
            "0x0000000000000000000000000000000000000000000000000000000000000000",
            "0x000000000000000000000000b30c79546800ef35ea1faae56a5faa5c03332d9f"
          ],
          "data": "0x000000000000000000000000000000000000000000000000d02ab486cedc0000",
          "blockHash": "0xdfc8e9b88b9da06cd10ca81e5098a3663543ab416db9c1a0f2f7b9cfcaf3d791",
          "blockNumber": "0x56f82c",
          "transactionHash": "0x29afe6e18e91c9c474134b2f96d9e017eec596433a6dc70877910ec937afc308",
          "transactionIndex": "0x2e",
          "logIndex": "0x40",
          "removed": false
        }
      ],
      "logsBloom": "0x00000000000000000000000000000000000000800000400000000000000000000000000000000000000000000000000000000000000000000000001000000000000000000000000000000008000000000000000000000000000000000000000000000000020000000000000000000800000000000000000800000010000000000000000000000004000000000000000000000000000000000000000000000000000000000000000000000000000000000000000000000000000000000000000000000002000000000000000000000000000000000000000000000000000020000010000000000000000000000000000000000000000000000000000000000000",
      "type": "0x2",
      "transactionHash": "0x29afe6e18e91c9c474134b2f96d9e017eec596433a6dc70877910ec937afc308",
      "transactionIndex": "0x2e",
      "blockHash": "0xdfc8e9b88b9da06cd10ca81e5098a3663543ab416db9c1a0f2f7b9cfcaf3d791",
      "blockNumber": "0x56f82c",
      "gasUsed": "0xc810",
      "effectiveGasPrice": "0x1dd314ad",
      "from": "0x3d49dea4035432968a531e663cda96255867bfc1",
      "to": "0x758d92d1ade72bce33c5677a23208280c259f00a",
      "contractAddress": null
    }
  ],
  "libraries": [],
  "pending": [],
  "returns": {},
  "timestamp": 1713137887,
  "chain": 11155111,
  "commit": "ad209ae"
}